:1000000002121490010AE0FF2222220200301203A1
:10001000F475C50112040100E5C2120B630DBD00A9
:10002000010C9000E312040F70EA120036D2AF22E6
:10003000D20632020378E4F5C7F5C5F5C675C3806C
:10004000F5C4220203B890FE82E030E6F9E054BF26
:02005000F0229C
:060053000202A802181EC3
:10005B000202EEE49000DEF0A3F0C2917F0AFE12E2
:10006B000512D2917F0A7E00120512E49000DEF099
:10007B009000DEE0C3941174809480501EE0FD2448
:10008B00E6F9E43400FA7B019000E57401F07F900F
:10009B001204499000DEE004F080D5E49000DFF01C
:1000AB007B017A0079DF9000E504F07D157F9002EB
:1000BB00044990FE86EFF090FE817402F002004638
:1000CB00020F977F021204711201C0120529120050
:1000DB005E7F147E00120512D2B4D2B39000E312ED
:1000EB00053F12000E120003EFF47011FFFE120514
:1000FB004E90010A7480F012053C1204201200038A
:10010B00C007120003AD07D007120334120572505B
:10011B001E30B51B120003C007120003AD07D0073A
:10012B00120334C205E49000FDF0A3F0A304F01217
:10013B0002391205695019B205300505E4FDFF803F
:10014B000C120003C007120003AD07D007120334D3
:10015B009000FFE024FE60460470B19000FDE47552
:10016B00F001120B879000FDE0FEA3E0FFE4FCFD25
:10017B007BFE7AFFF9F8D3120C0250099000FD7444
:10018B00FFF0A314F0D39000FEE094889000FDE004
:10019B009413500221179000FF7402F02117E4FF13
:1001AB00FE12054E12053C120420E49000FDF0A354
:1001BB00F0A3F0211743BA80E4F594F59375928A76
:1001CB00759140F596F59575B21875B1E3F5B4F5E3
:1001DB00B375CA10F5C9F5CCF5CBF5E2F5E190FE98
:1001EB00117430F0C29153B2FC43B10375B100539B
:1001FB00B22090FE077480F090FE07E030E0F9E447
:10020B00F5DC75F490C28BC289D2AAD2A8D288D25F
:10021B008A758F10438F2012138B43AF8053BAFE16
:10022B0090FE8074E0F090FE82E4F0D2AF22900159
:10023B000DE01460111460502402705B20B55D90CA
:10024B00010D7401F02290010BE475F001120B8784
:10025B0090010BE0FEA3E0FFE4FCFD7BFF7AFFF9CE
:10026B00F8D3120C02500874FF90010BF0A3F0D3DB
:10027B0090010CE0946490010BE09400401920B5C0
:10028B001690010D7402F02230B511D203E49001E7
:10029B000BF0A3F0A3F022E490010DF022C0E0C01C
:1002AB0083C082C0D0120499400374FEF01204B2D2
:1002BB0050037401F030B71190010EE4F0A3041257
:1002CB0004985014E004F0800F90010E74FFF0A31B
:1002DB001204A54003E014F0D204D0D0D082D08316
:1002EB00D0E032C0E0C083C082C0D012049940037A
:1002FB0074FEF01204B250037401F030B611900189
:10030B000E74FFF0A31204985014E014F0800F90B9
:10031B00010EE4F0A3041204A54003E004F0D204A0
:10032B00D0D0D082D083D0E032AC07ECD394FE7423
:10033B008094805037ED94FE74809480502EC2CC04
:10034B001204BEAF041204BEAF051204BEAF0512F9
:10035B0004BED2CC900113E0900111F0A3E0900108
:10036B0010F0900113ECF0900112EDF022C0E0C000
:10037B00F0C083C082C0D075D000C000C001C002E5
:10038B00C003C004C005C006C007E4FDFF12033460
:10039B00C2B3D007D006D005D004D003D002D00111
:1003AB00D000D0D0D082D083D0F0D0E032C0E0C02B
:1003BB0083C082C0D075D000C000E59A5401601391
:1003CB00539AFE900114E02422F8A69B12055E407E
:1003DB0002E4F0E59A54026005539AFDC207D0007F
:1003EB00D0D0D082D083D0E032AD07AC06C2AF758F
:1003FB00C78075F51822ECF5C3AF058FC475C65AC7
:10040B0075C6A522740129F9E43AFA74FFF5F012C6
:10041B000B8745F0221203F475C502ECF5C3AF054B
:10042B008FC4120B1DF5C2120408000DBD00010C88
:10043B009000E312040F70E3120036D2AF2290004B
:10044B00E2120C6C1204FB9000E2E475F001120C4A
:10045B0055120B1DFF1200BD1205099000E5E014AB
:10046B00F070E4020584EF640270217FCC7EFF12F2
:10047B0004E0539A7F43AF01439A1053BAFE43BA39
:10048B0001C207E4900115F0900114F022F09001E5
:10049B000AE0C394FF7480948022F090010AE0D3A9
:1004AB009400748094802290010AE0D394017480AC
:1004BB00948022E4FEEEC39408748094805015C29D
:1004CB0097EF30E704D2938002C293D297EF25E0E7
:1004DB00FF0E80E122AD07AC06538EEF538EF74330
:1004EB008E04ECF5D6AF058FD753AFFB438E10229E
:1004FB0012057B1200BD120509AF051200BD90FE5F
:10050B00817403F0020046E4FDFCC3ED9FEC9E50AA
:10051B000CC2063006FD0DBD00010C80ED22C2069B
:10052B00438E805389F0758A40758CA2D28CD2A9E8
:10053B00229000E37B017A01790AE4F0A304F0E452
:10054B00FFFE221203F475C50312040100120036DC
:10055B00D2AF22E004F0C394407480948022A203B3
:10056B009208C203A20822A2049208C204A2082283
:10057B0090FE817401F002004690FE817406F00239
:10058B000046F920E73624F950037907E4F42402F6
:10059B00FBE582158270021583DBF6E024FB501B12
:1005AB00E96014E4F0E582158270021583E004F033
:1005BB00B40A08E4F0D9EE7401F00A22C2D522ED98
:1005CB0033EC3392D5FA602AB4FF33EDC2E77BFFED
:1005DB0060067A0579EFE4227A0579F820D5047A5A
:1005EB000579F3224E614E002B494E46002D494EA4
:1005FB004600E47A08F0A3DAFC7B00740722C08380
:10060B00C082ECC0E0EDC0E0EEC0E0EFC0E0EA7508
:10061B00F010A4CAABF075F04DA42BFBE435F0FC45
:10062B00EA2410FAEB34C5FBEC34D9FCEDC2E7FF3E
:10063B0075F056A4F42411C5F0F434C58FF0A42A38
:10064B00E5F03BE43CF020E71412099DD0E0FFD02D
:10065B00E0FED0E0FDD0E0FC1208D08014F40412D0
:10066B00099DD0E0FFD0E0FED0E0FDD0E0FC12070A
:10067B00C7D082D083E0FAEDD2E7CD33EC332482BE
:10068B00FBE4C3CF33CFCE33CECD33CD33DBF37BD4
:10069B000775F00A846004F0A31B0AE5F0F0A38F42
:1006AB00F0740AA4FFACF08EF0740AA42CFEACF02C
:1006BB0050010C8DF0740AA42CFDE435F0F0A3DB93
:1006CB00DE740722020A12E86480F8E933E833602B
:1006DB00110460F0ED33EC337009E8FCE9FDEAFE40
:1006EB00EBFF220460DED3EB9FEA9EE99DE8C2E7B5
:1006FB008CF0C2F795F0400CE8CCF8E9CDF9EACED6
:10070B00FAEBCFFB1209DD85D0F05804700320D52E
:10071B00B3E80470075002B2D5020A1C92D5EC0460
:10072B0060F7E4CCC0E0C398F8603B9418600840D5
:10073B000DD0E0FB0209F4E4FBFAC9FC8028E83099
:10074B00E406E4C9FBE4CAFCE830E305E4C9CACB20
:10075B00FCE854076010F8C3E913F9EA13FAEB133A
:10076B00FBEC13FCD8F130F52FC3E49CFCEF9BFFA3
:10077B00EE9AFEED99FDD0E0FBEF4E4D4C70122240
:10078B00DB03020A19EC2CFCEF33FFEE33FEED33E7
:10079B00FDED30E7EB0209F4EF2BFFEE3AFEED39FE
:1007AB00FDD0E0FB50130BBB0003020A1CED13FD45
:1007BB00EE13FEEF13FFEC13FC0209F4EC4D60118A
:1007CB00E8497017ED33EC3304600DE4FCFFFEFDDC
:1007DB0022E933E8330470F8020A121209DD5804D7
:1007EB006009E4CC24815006285009020A1C2840D9
:1007FB0003020A19C0E0EB4A7044B98006D0E0FB53
:10080B00020A08EF4E701CBD8008EBFFEAFEE9FD03
:10081B0080EBE98DF0A4FEE5F00208B0E9CDF9EA32
:10082B00FEEBFFEF89F0A4FCE5F0CE89F0A42EFFE0
:10083B00E435F0CD89F0A42DFEE435F08067EF4E62
:10084B007005BD80D780C3EF8BF0A4ACF0EE8BF0BE
:10085B00A42CFCE435F0F8EF8AF0A42CE5F038FC7E
:10086B00E433CB8DF0A42CFCE5F03BF8EE8AF0A43E
:10087B002CFCE5F038F8E433CF89F0A42CFCE5F040
:10088B0038CF3400CE89F0A42FFFE5F03EFEE433E1
:10089B00C98DF0A42EFEE5F039CD8AF0A42FFFE52B
:1008AB00F03EFEE43DFD33D0E0FB50070BBB000FE9
:1008BB00020A1CEC2CFCEF33FFEE33FEED33FD0292
:1008CB0009F4020A1CEC5D046005E859047003028C
:1008DB000A121209DD580460F6EC4860F2EC700461
:1008EB00FDFEFF22C860DB2481C85009C39860025B
:1008FB005006020A199850CAF582E9294B4A70052D
:10090B00AB82020A0875F0007C1A7880C3EF9BEE6D
:10091B009AED99400DC3EF9BFFEE9AFEED99FDE822
:10092B0042F0DC23ACF0D0E0FFD0E0FED0E0FDAB3A
:10093B008220E7101BEB60BAEC2CFCEF33FFEE339D
:10094B00FEED33FD0209F4E803F830E705C0F0755E
:10095B00F000EF2FFFEE33FEED33FD40B830E7C272
:10096B0080AA3F8000004120000042C80000447A6A
:10097B000000461C400047C35000497424004B182C
:10098B0096804CBEBC205A0E1BCA6753C21C749D6A
:10099B00C5AEFB60065407601C23231209CBEB5436
:1009AB003860091209B71209C61207C7ECF8EDF93E
:1009BB00EEFAEFCB22EB1209C680F1543803241C5C
:1009CB0090096DFE93FC0EEE93FD0EEE930ECE93FF
:1009DB00FF22E9D2E7C933E833F892D5EDD2E7CD60
:1009EB0033EC33FC5002B2D522EC30E7100FBF00D2
:1009FB000C0EBE00080DBD00040BEB6014A2D5EB72
:100A0B0013FCED92E7FD2274FFFCFDFEFF22E48058
:100A1B00F8A2D574FF13FC7D80E480EFE709F6089C
:100A2B00DFFA8046E709F208DFFA803E88828C8382
:100A3B00E709F0A3DFFA8032E309F608DFFA8078E2
:100A4B00E309F208DFFA807088828C83E309F0A354
:100A5B00DFFA806489828A83E0A3F608DFFA805884
:100A6B0089828A83E0A3F208DFFA804C80D280FA75
:100A7B0080C680D4806980F28033801080A680EAA3
:100A8B00809A80A880DA80E280CA803389828A8348
:100A9B00ECFAE493A3C8C582C8CCC583CCF0A3C839
:100AAB00C582C8CCC583CCDFE9DEE7800D89828A9D
:100ABB0083E493A3F608DFF9ECFAA9F0EDFB2289A6
:100ACB00828A83ECFAE0A3C8C582C8CCC583CCF07C
:100ADB00A3C8C582C8CCC583CCDFEADEE880DB893E
:100AEB00828A83E493A3F208DFF980CC88F0EF606D
:100AFB00010E4E60C388F0ED2402B4040050B9F52A
:100B0B0082EB2402B4040050AF2323458223900AC6
:100B1B007773BB010689828A83E0225002E722BBEE
:100B2B00FE02E32289828A83E49322BB010CE582D5
:100B3B0029F582E5833AF583E0225006E92582F810
:100B4B00E622BBFE06E92582F8E222E58229F58240
:100B5B00E5833AF583E49322BB010689828A83F00D
:100B6B00225002F722BBFE01F322EF8DF0A4A8F076
:100B7B00CF8CF0A428CE8DF0A42EFE22C5F0F8A3C6
:100B8B00E028F0C5F0F8E582158270021583E03895
:100B9B00F022A3F8E0C5F025F0F0E5821582700293
:100BAB001583E0C838F0E822E88FF0A4CC8BF0A4D2
:100BBB002CFCE98EF0A42CFC8AF0EDA42CFCEA8E24
:100BCB00F0A4CDA8F08BF0A42DCC3825F0FDE98F47
:100BDB00F0A42CCD35F0FCEB8EF0A4FEA9F0EB8F3E
:100BEB00F0A4CFC5F02ECD39FEE43CFCEAA42DCE0B
:100BFB0035F0FDE43CFC22EB9FF5F0EA9E42F0E978
:100C0B009D42F0EC6480C864809845F022ECF0A320
:100C1B00EDF0A3EEF0A3EFF022A8828583F0D08352
:100C2B00D082120C3B120C3B120C3B120C3BE473AC
:100C3B00E493A3C583C5F0C583C8C582C8F0A3C51B
:100C4B0083C5F0C583C8C582C822F8E0FBA3A3E027
:100C5B00F925F0F0E582158270021583E0FA38F081
:100C6B0022EBF0A3EAF0A3E9F022D083D082F8E4E0
:100C7B00937012740193700DA3A393F8740193F501
:100C8B00828883E4737402936860EFA3A3A380DF6D
:100C9B00EC8EF0A4CCC5F0CCCDF8EFA4CEC5F02DE6
:100CAB00FDE43CFCE8A42EC8C5F03DFDE43CFCEFA4
:100CBB00A4FFE5F028FEE43DFDE43CFC229000009F
:100CCB00E0548064807072900003E0706C900002BE
:100CDB00E07066900006E07004A3E064026003021B
:100CEB000DDD900000E0540F14601914603D2402D8
:100CFB006003020DDD900005E07006900004E060DB
:100D0B001A020DDD90008AE06404700C900005E07F
:100D1B007006900004E06003020DDD9000CE74FFBE
:100D2B00F0A37418F0A374C9020DCF90008AE0648D
:100D3B00047006900005E06003020DDD900004E0F6
:100D4B00FE540F9000D7F0EE146041247F60030433
:100D5B00707E9000D7E0FF7E007401A80708800525
:100D6B00C333CE33CED8F9FF9000D1E0FDEF5D90C9
:100D7B0000CE600C74FFF0A37418F0A374CB800A40
:100D8B0074FFF0A37418F0A374C980389000D7E0F7
:100D9B00FF7E007401A807088005C333CE33CED87D
:100DAB00F9FF9000D2E0FDEF5D9000CE600C74FF78
:100DBB00F0A37418F0A374CB800A74FFF0A374181B
:100DCB00F0A374C9F09000CCE4F0A37402F080059A
:100DDB00800002181E12180E221217797F14121798
:100DEB00CDAE07EE30E6077D807F1412177DEE2027
:100DFB00E003020EC97B017A00794A7F2112161497
:100E0B00900008EFF09000F7E0FBA3E0FAA3E04AB4
:100E1B004B7003020EC7E49000D7F0900008E0FF80
:100E2B009000D7E0FEC39F4003020EC79000F7E08F
:100E3B00FBA3E0FAA3E0F9900009E0FD3395E08D08
:100E4B0082F583120B36FF744A2EF582E43400F5DB
:100E5B0083E06F7031900009E004F0900009E0FF2F
:100E6B003395E08F82F583120B367047FD7F14129A
:100E7B00177DE4F5F4F5DC90FE07F07F0AFE121700
:100E8B00DF75C76080FE9000F7E0FBA3E0FAA3E0FC
:100E9B00F9120B1DFF9000D7E0244AF582E43400D1
:100EAB00F583E0B507089000097401F08005E49024
:100EBB000009F09000D7E004F0020E26D200229039
:100ECB000000E0548064806003020F76900003E022
:100EDB0024FE602314603924026003020F76900015
:100EEB00CE74FFF0A37418F0A3744AF09000CCE416
:100EFB00F0A37412F080779000CE74FFF0A37418F7
:100F0B00F0A3745CF09000CCE4F0A37443F0805E2B
:100F1B00900002E01460201460362402704B9000A5
:100F2B00CE74FFF0A37418F0A3749FF09000CCE480
:100F3B00F0A37404F080379000CE74FFF0A3741804
:100F4B00F0A374A3F09000CCE4F0A37408F0801E1F
:100F5B009000CE74FFF0A37418F0A374ABF0900064
:100F6B00CCE4F0A3741EF08005800002181E9000E4
:100F7B0006E0FEA3E0FFD39000CDE09F9000CCE015
:100F8B009E4005EEF0A3EFF012180E22C0E0C0F069
:100F9B00C083C082C0D075D000C000C001C002C0E9
:100FAB0003C004C005C006C0079000D6E5FCF07F67
:100FBB00061217CD9000D3EFF07F021217CDA3EFDF
:100FCB00F07F041217CDA3EFF09000D3E030E103D4
:100FDB001200099000D3E030E2031215D79000D431
:100FEB00E030E0031212A09000D4E030E1031217BE
:100FFB00139000D4E030E2031217529000D5E0308A
:10100B00E103120DE49000D3E030E00312000A90EC
:10101B0000D6E0F5FCD007D006D005D004D003D025
:10102B0002D001D000D0D0D082D083D0F0D0E0322B
:10103B0090008AE064047024900000E06402701C4D
:10104B00900005E07016900003E07010900002E035
:10105B007076900006E07002A3E06002806A900058
:10106B0004E0FE540F9000D7F0EE14602C247F6048
:10107B00030470549000D1E0FF9000D7E0FDF874AA
:10108B0001088002C333D8FCF45F9000D1F07F0ECF
:10109B0012177D7D407F1180239000D2E0FF9000DE
:1010AB00D7E0FDF87401088002C333D8FCF45F90DD
:1010BB0000D2F07F0E12177D7D807F1412177DE416
:1010CB00FD7F0E12177D800302181E121838229016
:1010DB00008AE064047024900000E06402701C90AD
:1010EB000005E07016900003E0707A900002E0704B
:1010FB0074900006E07002A3E06002806890000428
:10110B00E0FE540F9000D7F0EE14602B247F6003A9
:10111B000470529000D1E0FF9000D7E0FDF874010D
:10112B00088002C333D8FC4F9000D1F07F0E12170A
:10113B007D7D107F1180229000D2E0FF9000D7E0E0
:10114B00FDF87401088002C333D8FC4F9000D2F035
:10115B007F0E12177D7D207F1412177DE4FD7F0E0D
:10116B0012177D800302181E1218382290008AE095
:10117B0064026022900000E0701C900003E0701687
:10118B00900005E07010900004E0700A900006E0FB
:10119B007002A3E0600302181E900002E06401904D
:1011AB00008A70547404F0E49000D1F09000D2F0F7
:1011BB007D017F0E12177D7D207F1212177D7D081A
:1011CB007F1012177D7D027F0E12177D7D207F12FF
:1011DB0012177D7D087F1012177D7D017F0E121770
:1011EB007DE4FD7F1212177D7D087F1312177DE4BE
:1011FB00FD7F0E12177D800D7403F09000D174FFEC
:10120B00F09000D2F012183822787FE4F6D8FD75F2
:10121B00816102125B0200CEE493A3F8E493A34036
:10122B0003F68001F208DFF48029E493A3F8540756
:10123B00240CC8C333C4540F4420C8834004F45651
:10124B00800146F6DFE4800B010204081020408089
:10125B00901596E47E019360BCA3FF543F30E509E3
:10126B00541FFEE493A360010ECF54C025E060A889
:10127B0040B8E493A3FAE493A3F8E493A3C8C5821C
:10128B00C8CAC583CAF0A3C8C582C8CAC583CADF8A
:10129B00E9DEE780BE1217C4AE07EE30E20D54FB59
:1012AB00FD7F1112177DE49000CBF0EE30E4084483
:1012BB0080FD7F1112177D9000CBE024FD60471459
:1012CB00604724047046EE30E0427B017A007900DF
:1012DB007F20121614900006E0FEA3E0FF1217A861
:1012EB00900006EEF0A3EFF0900000E0546024E0D5
:1012FB00600B24E0600A2440700902145302178C1F
:10130B0002184702181E021318121504221217C4D2
:10131B00EF20E16B9000CCE0FEA3E0FFD39440EE16
:10132B00940040067D407F4080009000D8EFF09005
:10133B0000CEE0FBA3E0FAA3E0F99000DDEFF07F35
:10134B00201216B69000D8E0FF7E00C39000CDE0CF
:10135B009FF09000CCE09EF09000CFEE8FF0120B40
:10136B00879000CCE07002A3E0700D7D0A7F111214
:10137B00177DE49000CBF0227D027F1112177D22A6
:10138B0053B2FC43B10390FE077480F090FE07E06C
:10139B0030E0F9E4F5DC75F490FDFF12177D7D0864
:1013AB007F0112177D7D3F7F0712177D7D3F7F09E0
:1013BB0012177D7D077F0B12177DE4FD7F0112173E
:1013CB007D90008A7402F0E49000CBF09000D1F095
:1013DB00A3F0900103120C2400C20100E49001075A
:1013EB00F0A3F0A37408F043AF8022900000E064F8
:1013FB00807024900003E0701E900002E070189043
:10140B000005E07012900004E0700C900006E07094
:10141B0004A3E06401600302181E90008AE06404D8
:10142B009000CE700C74FFF0A37418F0A374CB80F3
:10143B000A74FFF0A37418F0A374C9F09000CCE405
:10144B00F0A304F012180E22900001E0B40D00502E
:10145B004F901463F828287302148A02148D021417
:10146B00AB0214900214AB0214930214960214995B
:10147B0002149C02149F0214A20214A50214A802C7
:10148B000CC802103B0210DA0214AF020ECA0200A3
:10149B00560213F60211770215530216E90218448D
:1014AB0012181E22900000E07029900005E07023B6
:1014BB00900004E0701D900003E07017900002E0B4
:1014CB00C3948074809480500A900006E07002A34D
:1014DB00E0600302181E900002E09000D7F0FDE4DC
:1014EB00FF12177D9000D7E090008A60057403F01F
:1014FB0080037402F0121838221217C4EF30E04741
:10150B009000CEE0FBA3E0FAA3E0F97F20121614C3
:10151B00EFFDC39000CDE09DF09000CCE09400F087
:10152B009000CFE48FF0120B879000CCE07002A3F9
:10153B00E0700D7D487F1112177DE49000CBF022F7
:10154B007D407F1112177D2290008AE06404701E8B
:10155B00900000E064817016900003E07010900022
:10156B0005E0700AA3E07004A3E0640160030218B5
:10157B001E9000CE74FFF0A37418F0A374C9F09002
:10158B0000CCE4F0A304F012180E22C10442010EA9
:10159B00000041010A00C10341010D0042010B0093
:1015AB00005100E6008C000000684A80880002327F
:1015BB00FF008A00004301000000004300FA000016
:1015CB00004300F7FF18CD4100090000E4FDFF12B6
:1015DB00177D90008A7402F0E49000CBF00D7F0E23
:1015EB0012177D7D487F1112177D7D027F0E12171A
:1015FB007D7D487F1112177D1217797D907F141214
:10160B00177DE4FD7F0E02177D9000D8EBF0A3EA67
:10161B00F0A3E9F0AE077F161217CDAD07AC05AFFF
:10162B00051DEF601BAF061217CD9000D8E0FBA392
:10163B00E475F001120B9DA9F0FAEF120B6380DF3A
:10164B00AF042290008AE064047008900000E0640C
:10165B0021600302181E9000CE7401F0A37401F0F8
:10166B00A37403F0900006E0FFA3E09000CCCFF052
:10167B00A3EFF012182B2290008AE06404700890FC
:10168B000000E064A1600302181E9000CE7401F00C
:10169B00A37401F0A37403F0900006E0FFA3E090A5
:1016AB0000CCCFF0A3EFF012180E229000DAEBF083
:1016BB00A3EAF0A3E9F0AE079000DDE0FF14F0EF32
:1016CB00601BAF069000DAE0FBA3E475F001120B90
:1016DB009DA9F0FA120B1DFD12177D80DB229000E5
:1016EB008AE06404701B900000E0B40114900003C6
:1016FB00E0700E900005E07008A3E07002A3E060BC
:10170B000302181E121838227D011217C6AE07EEFF
:10171B0030E5077D407F1112177DEE30E207E4FDC7
:10172B007F1112177DC20222EF1FAC0670011E4CF7
:10173B00601400000000000000000000000000002A
:10174B000000000080E2227D021217C6AE07EE30C9
:10175B00E5077D407F1112177DEE30E207E4FD7F38
:10176B001112177D22E4F0A374C8F053AF7F7D01F3
:10177B007F0EE5FC20E7FBEF547FF5FCAF058FEC0C
:10178B0022900001E024DF600A14600A2402700931
:10179B0002164E0216820217F712181E229000D75D
:1017AB00EEF0A3EFF0E0A3F09000D7E09000DAF0BA
:1017BB009000D9E0FEA3E0FF22E4FD7F0E12177D1F
:1017CB007F11E5FC20E7FBEF4480F5FCE5FC20E70F
:1017DB00FBAFEC22AB07AA06EB1BAE0270011A4E55
:1017EB0060097FE87E0312173380ED2290008AE0B8
:1017FB0064047008900000E06421600302181E125C
:10180B001838229000CB7403F07D407F1112177DA6
:10181B000213189000CB7405F07D607F1102177DC9
:10182B009000CB7404F07D407F1102177DE4900093
:10183B00CBF07D487F1102177D02181E02181E1275
:10184B0001000202000040BF3402FF000101020050
:10185B000109024300020100803209040000010269
:10186B0002010005240010010524010001042402DB
:10187B00020524060001070582034000FF0904014D
:10188B0000020A0000000705810240000007050165
:10189B0002400000040309040803530054004300F2
:1018AB001E03530054004300200055005300420018
:1018BB002000530065007200690061006C0000009D
:0B18CB000100405354434953502300D8
:00000001FF
