:1007E300E4FFEFC39407748094805030E4FEEEFD81
:1007F300C39403748094805020ED6401700DEF75F1
:10080300F003A424092EF87632800BEF75F003A4CD
:0C08130024092EF8E4F60E80D50F80C6F4
:01081F0022B6
:100ABF00120A6B120820120AFED2AF1200CE1207D2
:060ACF00E31209A080F50E
:100A6B0043BA8053B2FC43B10390FE077480F090FD
:0D0A7B00FE07E030E0F9E4F5DC75F49022B0
:10082000E4FDFF120B157D817F01120B157D3F7FCB
:1008300007120B157D3F7F09120B157D077F0B12E9
:100840000B157D017F01120B15754402E4F545F58A
:090850004BF54CC20043AF8022BD
:090AA400E4FD7F0E120B157F1119
:100AAD00E5FC20E7FBEF4480F5FCE5FC20E7FBAF20
:010ABD00EC4C
:010ABE002215
:040B11007D407F1193
:0D0B1500E5FC20E7FBEF547FF5FC8DEC22A2
:080859008B248A258926AE07D5
:100861007F16120AADAD07AC05AF051DEF6019AFDC
:1008710006120AADAB240526E526AA257002052538
:0A08810014F9EF12096580E1AF04DD
:01088B00224A
:100977008B268A278928AE07AF291529EF6019AF7B
:1009870006AB260528E528AA277002052714F912C1
:09099700094CFD120B1580E02251
:0300CB000203B974
:1003B900C0E0C0F0C083C082C0D075D000C000C00A
:0D03C90001C002C003C004C005C006C0078B
:1003D6007F06120AAD8F217F02120AAD8F227F049B
:1003E600120AAD8F23E52130E103120009E5213021
:1003F600E2031208F1E52230E003120603E522309B
:10040600E103120A88E52330E103120A2AE52130C6
:05041600E00312000AE2
:10041B00D007D006D005D004D003D002D001D00035
:0B042B00D0D0D082D083D0F0D0E032DF
:0100090022D4
:1008F100E4FDFF120B15754402E4F5450D7F0E1260
:100901000B157D487F11120B157D017F0E120B1502
:0E0911007D907F14120B15E4FD7F0E020B1576
:01000A0022D3
:10060300120AA4AE07EE30E20B54DFFD7F11120B8A
:1006130015E4F545EE30E408547FFD7F11120B1508
:10062300E54524FD603D14603D2404703CEE30E05C
:10063300387B007A00793C7F20120859AF43AE42E1
:100643001200BC8E428F43E53C546024E0600B24CF
:10065300E0600A2440700902066D02091F020B5D67
:09066300020B300206C712076603
:01066C00226B
:0A0B30007545057D607F11020B156D
:090B4E00754503120B110206C7E4
:0A0B3A007545047D407F11020B1584
:0A0B4400E4F5457D487F11020B1512
:1006C700120AA4EF20E150D3E5479440E546940091
:1006D70040047F408002AF47AC07AB48AA49A94A0C
:1006E7008C297F20120977ECFFC3E5479FF547E583
:1006F700469400F546EF254AF54AE43549F549E5BC
:10070700474546700B7D0A7F11120B15E4F545220C
:070717007D027F11120B159A
:01071E0022B8
:10076600120AA4EF30E037AB48AA49A94A7F201203
:100776000859EFFDC3E5479DF547E5469400F54664
:10078600EF254AF54AE43549F549E5474546700BF4
:0E0796007D487F11120B15E4F54522120B1160
:0107A4002232
:100AEB00ED2420FF120859AE07E4FD7F14120B15FD
:020AFB00AF0644
:010AFD0022D6
:100A88007D01120AA6AE07EE30E503120B11EE3017
:0B0A9800E207E4FD7F11120B15C20005
:010AA3002230
:100A2A007D017F0E120B157F14120AADAE07EE3050
:100A3A00E6077D807F14120B15EE30E00312088C56
:010A4A002289
:10000E001201000200000040BF3403FF0001010294
:10001E000001090229000101008096090400000276
:10002E0003010100092101010001224100070581A0
:10003E00031000010705010301000A05010906A1CD
:10004E0001050719E029E7150025017501950881BD
:10005E000275089501810119002965150025657540
:10006E0008950E8100050819012903150025017553
:10007E000195039102750595019101C004030904D0
:10008E00080353005400430022035300540043005E
:10009E00200055005300420020004B0065007900FF
:0E00AE0062006F00610072006400000001003B
:0A0B2200084D0709000D0E0610280B
:10091F00E53D24FE601714601A24FA600D14601070
:10092F00146013240A70120209C40209E6020A08AD
:0D093F00020AD5020003020006120B30224E
:1009C400E54464047006E53C64A16003020B3075E1
:1009D4004801754900754A00854246854347120B14
:0209E4004E22A1
:1009E600E54464047006E53C64216003020B30753F
:1009F6004801754900754A00854246854347120BF2
:020A06003A2292
:100A0800E54464047006E53C64A16003020B30759C
:100A18004800754900754A55754600754701120B1F
:020A28004E225C
:100AD500E54464047006E53C64216003020B30853F
:060AE5003F55120B4422F4
:03000300020B30BD
:03000600020B30BA
:10088C007B017A0079007D01120AEBEF6401702282
:10089C0053B4FE53B3FE53CC1F53CB1FC2C09000B6
:1008AC0000E0FF13B392EFEFA2E1B392EEA2E2B33A
:0208BC0092EDBB
:0108BE002217
:1000CE00E544640460030201AF3000030201AFF5A2
:1000DE003AC3E53A941074809480500B742A253AF2
:1000EE00F8E4F6053A80EAE4F53AC3E53A94087482
:1000FE008094805078AF90EFF4FDE4F4FC7E0074B1
:10010E0001A83A088005C333CE33CED8F9FFEE5C92
:10011E00FEEF5D4E602AE4F53BC3E53B940E748022
:10012E0094805044742C253BF8E67010744D253A9B
:10013E00F8E6FF742C253BF8A607802C053B80D9EA
:10014E00E4F53BC3E53B940E74809480501A744DD5
:10015E00253AF8E6FF600D742C253AF8E6B507044B
:10016E00E4F68004053B80DB053A0200F853AF7FCE
:10017E00D2007D017F0E120B15E4F53AC3E53A94D9
:10018E0010748094805010742A253AF8E6FD7F2171
:10019E00120B15053A80E57D017F11120B1543AF49
:0101AE0080D0
:0101AF00222D
:10066D00E53DB40D00504F90067BF8282873020627
:10067D00A20206A50206C30206A80206C30206AB25
:10068D000206AE0206B10206B40206B70206BA02AF
:10069D0006BD0206C00201B00204360204B0020714
:1006AD00A5020285020B5702071F0205970208BF1C
:0A06BD00020A4B020B5A120B302206
:1001B000E53C548064807055E53F7051E53E704DDC
:1001C000E54364024542600302027EE53C540F149D
:1001D000601514602E2402600302027EE541700463
:1001E000E540601402027EE54464047008E5417055
:1001F00004E540600302027E7548FF754900754AB8
:10020000B88071E54464047004E5416002806FE5E4
:1002100040540FF524E5401460302480705E7E0069
:100220007401A824088005C333CE33CED8F9FFEF7C
:10023000554B600B7548FF754900754ABA800975C2
:1002400048FF754900754AB8802A7E007401A824C9
:10025000088005C333CE33CED8F9FFEF554C600B81
:100260007548FF754900754ABA80097548FF754998
:1002700000754AB875460075470280058000020B7C
:0402800030120B4EDF
:010284002257
:10043600E5446404706DE53C64027067E5417063F1
:10044600E53F705FE53E705BE543454260028053E1
:10045600E540540FF524E54014602124807044AF34
:1004660024A8077401088002C333D8FCF4524BADAC
:10047600247F0E120B157D407F11801BAF24A80729
:100486007401088002C333D8FCF4524CAD247F0EAD
:10049600120B157D807F14120B15E4FD7F0E120BD7
:0904A600158003020B30120B4417
:0104AF00222A
:1004B000E5446404706BE53C64027065E54170617D
:1004C000E53F705DE53E7059E5434542600280516D
:1004D000E540540FF524E54014602024807042AFBD
:1004E00024A8077401088002C333D8FC424BAD2412
:1004F0007F0E120B157D107F11801AAF24A8077490
:1005000001088002C333D8FC424CAD247F0E120B8D
:10051000157D207F14120B15E4FD7F0E120B158044
:0705200003020B30120B4433
:0105270022B1
:1007A500E53C701DE5417019E5407015E53F701198
:1007B500C3E53E9480748094805006E543454260CD
:1007C50003020B30853E24AD24E4FF120B15E5240E
:0D07D50060057544038003754402120B4457
:0107E20022F4
:10028500E53C548064806003020315E53F24FE606D
:100295001C14602A24E16067242170747548FF7579
:1002A5004900754A0E75460075471280667548FF08
:1002B500754900754A207546007547298055E53E04
:1002C500146018146026240270337548FF754900C0
:1002D500754A8A75460075470480387548FF754923
:1002E50000754A8E75460075470880277548FF7565
:1002F5004900754A96754600754722801680117526
:1003050048FF754900754A497546007547418003A0
:10031500020B30D3E5479543E546954240068542B5
:0803250046854347120B4E22EE
:030B5700020B305E
:10071F00E53C64807018E53F7014E53E7010E541CC
:10072F00700CE5407008E543640145426003020B1D
:10073F0030E5446404700D7548FF754900754ABA79
:10074F00F546800C7548FF754900754AB875460027
:07075F00754701120B4E2249
:10059700E54464026016E53C7012E53F700EE541E4
:1005A700700AE5407006E54345426003020B30E5FB
:1005B7003E6401703A754404F54BF54C7D017F0E9E
:1005C700120B157D207F12120B157D087F10120B61
:1005D700157D017F0E120B15E4FD7F12120B157DA1
:1005E700087F13120B15E4FD7F0E120B158009759A
:0C05F7004403754BFF754CFF120B4422AF
:1008BF00E54464047016E53C64817010E53F700CEC
:1008CF00E5417008E543640145426003020B307552
:1008DF0048FF754900754AB8754600754701120BF8
:0208EF004E2297
:100A4B00E54464047013E53CB4010EE53F700AE520
:100A5B00417006E54345426003020B30120B442202
:030B5A00020B305B
:030B5D00020B3058
:0400BC008E248F25DA
:0A00C000852526852427AE26AF27EC
:0100CA002213
:100AFE00C201438E805389F0758A40758CA2D28CC8
:030B0E00D2A92247
:03000B00020B6085
:030B6000D201328D
:030B2C00010800BD
:10052800E4FFEFC39407748094805062E4FEEEC346
:100538009403748094805053EE1460101460162451
:1005480002701CEF75F003A4240A8010EF75F00305
:10055800A424098007EF75F003A4240BF8E6F9E456
:10056800FDEDC3940874809480501BD2B400000041
:1005780000E93392B40000000000000000E925E023
:0E058800F9C2B40D80DBC2B40E80A30F8094C4
:010596002242
:1009A0000508E50824CE600B1460042432700BC2E5
:1009B000B48007C2AF120528D2AFE50875F03C84B9
:0309C00085F008B7
:0109C3002211
:0300000002032DCB
:0C032D00787FE4F6D8FD7581550203745A
:10094C00BB010689828A83E0225002E722BBFE02A9
:09095C00E32289828A83E49322DC
:10096500BB010689828A83F0225002F722BBFE0171
:02097500F3226B
:10033900020ABFE493A3F8E493A34003F68001F211
:1003490008DFF48029E493A3F85407240CC8C333C5
:10035900C4540F4420C8834004F456800146F6DF94
:10036900E4800B0102040810204080900B22E47EF7
:10037900019360BCA3FF543F30E509541FFEE49389
:10038900A360010ECF54C025E060A840B8E493A350
:10039900FAE493A3F8E493A3C8C582C8CAC583CA7B
:1003A900F0A3C8C582C8CAC583CADFE9DEE780BE33
:010B2F0000C5
:00000001FF
